{
	"contractName": "Donation",
	"abi": [
		{
			"inputs": [],
			"stateMutability": "nonpayable",
			"type": "constructor"
		},
		{
			"inputs": [
				{
					"internalType": "address",
					"name": "",
					"type": "address"
				}
			],
			"name": "donors",
			"outputs": [
				{
					"internalType": "bytes32",
					"name": "name",
					"type": "bytes32"
				},
				{
					"internalType": "uint256",
					"name": "donatedAmount",
					"type": "uint256"
				}
			],
			"stateMutability": "view",
			"type": "function",
			"constant": true
		},
		{
			"inputs": [
				{
					"internalType": "uint256",
					"name": "donationAmount",
					"type": "uint256"
				}
			],
			"name": "donate",
			"outputs": [],
			"stateMutability": "nonpayable",
			"type": "function"
		},
		{
			"inputs": [],
			"name": "getTotalDonations",
			"outputs": [
				{
					"internalType": "uint256",
					"name": "",
					"type": "uint256"
				}
			],
			"stateMutability": "view",
			"type": "function",
			"constant": true
		}
	],
	"bytecode": "0x60806040526000805534801561001457600080fd5b50610349806100246000396000f3fe608060405234801561001057600080fd5b50600436106100415760003560e01c8063777c658f14610046578063ca0cdea814610064578063f14faf6f14610095575b600080fd5b61004e6100b1565b60405161005b919061016a565b60405180910390f35b61007e600480360381019061007991906101e8565b6100ba565b60405161008c92919061022e565b60405180910390f35b6100af60048036038101906100aa9190610283565b6100de565b005b60008054905090565b60016020528060005260406000206000915090508060000154908060010154905082565b6000600160003373ffffffffffffffffffffffffffffffffffffffff1673ffffffffffffffffffffffffffffffffffffffff168152602001908152602001600020905081816001015461013191906102df565b81600101819055508160005461014791906102df565b6000819055505050565b6000819050919050565b61016481610151565b82525050565b600060208201905061017f600083018461015b565b92915050565b600080fd5b600073ffffffffffffffffffffffffffffffffffffffff82169050919050565b60006101b58261018a565b9050919050565b6101c5816101aa565b81146101d057600080fd5b50565b6000813590506101e2816101bc565b92915050565b6000602082840312156101fe576101fd610185565b5b600061020c848285016101d3565b91505092915050565b6000819050919050565b61022881610215565b82525050565b6000604082019050610243600083018561021f565b610250602083018461015b565b9392505050565b61026081610151565b811461026b57600080fd5b50565b60008135905061027d81610257565b92915050565b60006020828403121561029957610298610185565b5b60006102a78482850161026e565b91505092915050565b7f4e487b7100000000000000000000000000000000000000000000000000000000600052601160045260246000fd5b60006102ea82610151565b91506102f583610151565b925082820190508082111561030d5761030c6102b0565b5b9291505056fea264697066735822122077b45de5ab80250531cfc320124ba649657ee1fcdf18c94a85079a3a5bcc780064736f6c63430008110033",
	"immutableReferences": {},
	"source": "// SPDX-License-Identifier: GPL-3.0\r\npragma solidity >=0.7.0 <0.9.0;\r\n\r\n/// @title Donation.\r\ncontract Donation {\r\n\t// This declares a new complex type which will\r\n\t// be used for variables later.\r\n\t// It will represent a single donor.\r\n\tstruct Donor {\r\n\t\tbytes32 name; // short name (up to 32 bytes)\r\n\t\tuint256 donatedAmount; // donation amount\r\n\t}\r\n\r\n\tuint256 totalDonations = 0; // total donation amount\r\n\r\n\t// This declares a state variable that\r\n\t// stores a `Donor` struct for each possible address.\r\n\tmapping(address => Donor) public donors;\r\n\r\n\tconstructor() {}\r\n\r\n\tfunction donate(uint256 donationAmount) external {\r\n\t\tDonor storage sender = donors[msg.sender];\r\n\t\tsender.donatedAmount = sender.donatedAmount + donationAmount;\r\n\t\ttotalDonations = totalDonations + donationAmount;\r\n\t}\r\n\r\n\t/// @dev return the total domation amount.\r\n\tfunction getTotalDonations() public view returns (uint256) {\r\n\t\treturn totalDonations;\r\n\t}\r\n}\r\n",
	"sourcePath": "/mnt/d/github-projects/TSYP-IAS-CHALLENGE-SOLUTION/backend/contracts/Donation.sol",
	"compiler": {
		"name": "solc",
		"version": "0.8.17+commit.8df45f5f.Emscripten.clang"
	},
	"schemaVersion": "3.4.10",
	"updatedAt": "2022-12-02T23:09:09.856Z",
	"networkType": "ethereum",
	"devdoc": {
		"kind": "dev",
		"methods": {
			"getTotalDonations()": {
				"details": "return the total domation amount."
			}
		},
		"title": "Donation.",
		"version": 1
	},
	"userdoc": {
		"kind": "user",
		"methods": {},
		"version": 1
	}
}